:020000040000FA
:2000000000000420D51D0000FD1D0000FF1D0000011E0000031E0000051E00000000000031
:20002000000000000000000000000000071E0000091E0000000000000B1E00000D1E000020
:200040002D1B000079100000C90600000F1E00000F1E00000F1E0000251700000F1E000010
:20006000CD0500000F1E00000F1E0000051300000F1E0000151900000F1E00000F1E000087
:20008000451900000F1E00000F1E00000F1E00000F1E00000F1E00000F1E00000F1E0000C7
:2000A0000F1E00000F1E00000F1E00000F1E00000F1E00000F1E0000000000000000000032
:2000C0000F1E00000F1E00000F1E00000F1E00000F1E00000F1E00000F1E00000F1E0000B8
:2000E0000F1E00000F1E00000F1E000000000000000000000F1E0000000000000F1E00001F
:200100000000000000000000000000000000000000000000000000000000000000000000DF
:200120000000000000000000000000000000000000000000000000000000000000000000BF
:2001400000000000000000000000000000000000000000000000000000000000000000009F
:2001600000000000000000000000000000000000000000000000000000000000000000007F
:2001800000000000000000000000000000000000000000000000000000000000000000005F
:2001A00000000000000000000000000000000000000000000000000000000000000000003F
:2001C00000000000000000000000000000000000000000000000000000000000000000001F
:2001E0000000000000000000000000000000000000000000000000000000000000000000FF
:2002000010B5054C237833B9044B13B10448AFF300800123237010BDC40300200000000055
:2002200008D500000C4B43B10C480D4910B5AFF300800C48036823B910BD0A48036833B9F4
:200240007047094B002BF7D0BDE810401847064B002BF5D0184700BF0000000008D5000011
:20026000C8030020C003002000000000154B002B08BF134B9D46A3F5803A00218B460F4684
:200280001348144A121A0CF0CDFC0F4B002B00D098470E4B002B00D0984700200021040008
:2002A0000D000D48002802D00C48AFF3008000F02BF82000290002F05BF900F011F800BF12
:2002C00000000800000004200000000000000000C403002038310020000000000000000082
:2002E00008B5074B044613B10021AFF30080054B1868836A03B19847204600F029F800BF18
:200300000000000018CD000070B50D4E0D4CA41BA4100025A54209D10B4E0C4C0CF0F0FC2D
:20032000A41BA4100025A54205D170BD56F8253098470135EEE756F8253098470135F2E71D
:20034000B8030020B8030020B8030020BC030020FEE700BF08B503F069FCBDE8084003F094
:2003600039BA00BF00B585B003F01EF9002003F027F800F077F903F0E1F9F420CE2136221D
:200380004FF080538DF808008DF809108DF80A20D3F8A8208DF80B2004A9D3F8A43041F8A9
:2003A0000C3D042203A80CF054FC02A9082203480CF04FFC05B05DF804FB00BF2C26002036
:2003C0000021014802F0DABC2C02002010B500F0D5F90446BFF35F8F02F062FD00B930BF77
:2003E000BFF35F8F2046BDE8104000F0CBB900BF802802D1024B00221A600120704700BFD4
:2004000004C500400120704730B5154C012383B0236000F0CFF86FF003052D1A03E000F0A3
:20042000C9F8C54203D5D4F80031002BF7D00C4B0022C3F80021D3F80825920508D4D3F8A2
:200440000835074A019301235360019803B030BDD3F808356FEA83536FEA9353F1E700BF5D
:2004600000C0004070B5044690B10078A0B189B16618002504E014F8010F38B1B44205D072
:2004800000F0DCF8631C05F10105F4D1284670BD0546FBE70D46F9E70546F7E700B5134B21
:2004A00083B000221A6001F04BFC08B100F018FE002001F061FC0E4B0E4A18689B88ADF80F
:2004C0000430009000230C488DF80430694600F0AFFE08B100F004FE0121074800F0FCFED6
:2004E000054800F0EDFE03B05DF804FBE003002074CD0000290500007CCD0000014B186846
:20050000704700BFE003002008B5064A13680133136002F037FB00B908BDBDE8084002F0B2
:2005200007BB00BFE0030020042800D07047FFF7EBBF00BF014B1868C0097047E0030020D6
:2005400010B4164A164B17490020106083B012680192019AD3F8102522F00F0242F00802EC
:20056000C3F81025D3F8082542F00302C3F80825D3F804254FF4803422F003024FF480703F
:20058000C3F80425C3F80443C1F88001086001221A6003B05DF8044B704700BF4081004068
:2005A0000080004000E100E0014BC3F84005704700800040034A044B01211160D3F84405B4
:2005C000704700BF4480004000800040074B1A6802B9704700B500221A6083B01B68019300
:2005E000019B02F01FFB03B05DF804FB408100400F4B186050B10F4A0F490423C2F80433AF
:20060000C1F880310B600123136070470A4A09490423C1F80833C2F88031C2F88030BFF36F
:200620004F8FBFF36F8F0B4401221A60704700BFE40300200020004000E100E0074B084AFE
:20064000C3F81C0582B01368002BFCD00023136013680193019B02B0704700BF0020004051
:200660001C210040F0B4144B1448154F154C4FF0A041002203264025C3F80025C1F81867F1
:20068000C1F8085508260625C1F8202782B0C3F82475C3F86C25C3F81465C3F80C55026067
:2006A00002680192019804210122C3F80015226002B0F0BC704700BF002000401C21004059
:2006C00000E0D7010820004000B5084B0849094A0020186083B01B680193019BD1F81805EA
:2006E0001368C0B2984703B05DF804FB0821004000200040E40300204FF0A0434FF4F031D1
:200700000022C3F80815C3F80C25704700B50D4B93E8070085B001AB83E8070018460A49A9
:2007200001F024F958B9094801F05AF908B100F0D7FC074B01221A7005B05DF804FB00F091
:20074000CFFCF0E784CD0000F9060000E0250020E1250020024B1B7803B9704701F032B92D
:20076000E1250020034B1B7803B97047024B187801F05CB9E1250020E0250020EFF310805F
:2007800072B6704780F31088704700BFFFF756BF0148FFF72DBF00BF3D3B000000F01F037A
:2007A0000121C0F34710994003F024BA08B500F059FE00B108BDBDE8084000F005BE00BF8A
:2007C00030B583B01446022301F01F0100228DF8063014F00C0341EA4015ADF8042008D060
:2007E000042B25D0082B27D00C2B04BF03238DF8043014F0030306D0022B15D0012B04BFF1
:2008000003238DF8053001A90D4A284600F034FE2306284604D5012100F0D0FE03B030BD77
:2008200000F048FF03B030BD01238DF80530EAE701238DF80430DCE702238DF80430D8E7F5
:200840009D07000001F01F0141EA40101F28CABF054B4FF0A04300F01F00D3F8101521FA0C
:2008600000F000F00100704700030050024B0022C3F8FC2F012070470010004089B1182896
:2008800000F28380DFE800F00F118181736A7C654F4944818181403C383481302C2824213B
:2008A0001D000220704700207047394B394AD3F80835A2FB03239B080A33DBB20B600020A1
:2008C00070477D230B600020704700200860704710230B60002070470A230B60002070475C
:2008E00020230B600020704703230B600020704708230B6000207047D8230B600020704761
:200900001A230B60002070470B230B6000207047214B1B780B6000207047204B93F9003080
:200920000B60002070471E4B1E4A012082B018601368002BFCD0002010601268144B01926B
:20094000019AD3F8483503F07F035B420B6002B07047154B5B790B6000207047124BDB78A8
:2009600000200860002B9ED001230B6070470E4B1B7800200860002B95D004230B607047C3
:20098000094B5B780B60002070470120704700BF00100040CDCCCCCCE2250020E325002087
:2009A000141000401C110040D00100200120704770B582B0FFF7E2FEBFF35F8F1B4B1B78D7
:2009C000FBB91B4903F0FF020A600968194B019101991A601A681849184B00924FF0FF35DB
:2009E00002224FF44054009EC1F80853C3F88021C1F804431A60BFF35F8FFFF7C3FE02B06B
:200A000070BD0E4B0C4902224FF0FF34C1F80843C3F88021C3F88020BFF34F8FBFF36F8F6A
:200A2000BFF35F8FFFF7AEFE02B070BDD001002030110040341100400010004000E100E08D
:200A4000144BD3F8FC0F50B1D3F85035DBB2032B06D00020704792F8800080F00100704776
:200A60000D4B1B7803F0FF0073B10C4B1B78053B7A2BEED80A4B1B68002BEAD1094B18684E
:200A8000B0FA80F040097047044A1378053B7A2BE1D9704700100040D0010020E8030020C1
:200AA0003011004034110040074A1378053B7A2B01D900207047054B1B6813B992F8800015
:200AC00070470120704700BFE8030020301100400C2801D001207047042A01D00220704787
:200AE0000029FBD0024B1B680B600020704700BF6C04002070B51B4CD4F85055EDB2032DD5
:200B000082B028D0184B194AC4F8042518481949C3F810054FF000620126C3F81415C3F807
:200B20000465C3F80425FFF743FFD4F8003243F01003C4F80032D4F80032022D43F4002377
:200B4000C4F8003209D00C4B0C4A002119601B680193019B166002B070BD094B1E6002B0FB
:200B600070BD00BF0010004000F00140E8030020381100404C80004058110040041000406B
:200B80000810004070B52F4E2F49304A304B314D0024346084B036680096009E0C600968D5
:200BA00001910199146012680292029A1C602A781B680393531F7A2B039909D98122214615
:200BC00028460CF02FF8FFF795FF204604B070BD941E2246691C0CF03CF82B195B783F2B63
:200BE0002CD9FF231C4E1D4A3370D2F848351C4A03F07F035B425BB299B20420137003F0A9
:200C0000EBFB3178032003F0E7FB164B2A7816491A74D1F84C055860D1F84815996052001A
:200C2000DA605D680B4881220021023D1D600BF0F9FFFFF75FFF204604B070BD9B00DBB22C
:200C4000D0E700BF381100400C1100403411004030110040E8030020E225002000100040B0
:200C6000E32500206C0400200080004010B503880446FBB140F2C932934203D1822905D060
:200C8000012010BD00230380032010BDFFF70CFF80B1FFF767FD03F04BFB03F003FB802179
:200CA000FFF770FF002805DD80B203F0F5FA044BDB68984740F2C9332380012010BD00BFC2
:200CC000B4D200007D2910B50C4609D801460A48A31C00F8013B22460BF0BBFF002010BD5A
:200CE000064A0749074804F035FD21467D22064804F030FD012010BD80040020C8CD000043
:200D0000D8CD0000DCCD0000ECCD000030B5264C264A27480F23C4F8103593780A3B03EB25
:200D20008303C4F808351179D579937952791B0643EA05230B4385B043EA0243002540F2C3
:200D40000222C4F86C362946C4F83425C4F838050D226846C4F83C550BF064FF9DF8022055
:200D60009DF801309DF804009DF80710120442EA032242F0C06343F0080343EA805343EA41
:200D80004173C4F814359DF80A309DF809201B0443EA022343F07F0340F20122C4F8183589
:200DA000C4F8502605B030BD00100040D00100202110010008B5064BD3F8FC2F22B90122EA
:200DC000C3F8FC2FFFF7A2FFFFF794FE012008BD0010004030B585B0FFF7ECFF104A114929
:200DE0001148124C0023136015680395039D0B600D680295029D03600368019301230198BC
:200E0000236001E00B6813B91368002BFAD0044A044B10681B68B0FA80F0400905B030BD22
:200E200048110040441100404C1100402C10004010B5072856D8DFE800F0191F5555374237
:200E400049042E4A2E48C9B25171D0F8FC3F5BB11179D479937952791B0643EA04230B439A
:200E600043EA0243C0F86C36002010BD012940D0002939D0022010BDA1F10B030F2BF9D8B3
:200E80001E4A1F4BC8B29070D3F8FC2F002AEBD00A3901EB81010024C3F8FC4FC3F8081578
:200EA000FFF788FF204610BD31F00704E2D1134BC1F380011970FFF77BFD204610BD31F0C5
:200EC0000100D7D10D4BC9B2D97010BD0B4A0C4BC9B25170D3F8FC2F002AC5D0C3F80C1507
:200EE000002010BD012010BD054BC3F8FC1F084610BDFFF75FFF002010BD00BFD0010020E5
:200F00000010004010B57D2884B03FD8294CFFF751FFE378002B46D16378274A2749DBB22B
:200F20000120C2F80C350860D2F85035DBB2022BFAD12349234BC2F8043500230B6008688E
:200F4000019001980B66086E029002988B648B6C0393039BD2F80032012143F48023C2F888
:200F600000321160FFF726FB6FF00204241AFFF721FBE042FBD4104AD2F85035DBB20B2BA5
:200F8000FAD0FFF7B7FD002004B010BD04460E4A0E490F4804F0DEFB21460E4804F0DAFB99
:200FA000012004B010BDFFF715FF0028B4D1022004B010BDD0010020001000400C10004098
:200FC0000C11004080040020C8CD0000D8CD0000DCCD000020CE000010B50C46FFF772FEC2
:200FE0002046BDE81040FFF78DBF00BF10B51A491A481B4A1B4C00230B6003704B60237000
:201000008B6082B0CB600B741360136800934FF080430121009819601368002BFCD00024BD
:2010200014601368019321460F48019B01F0A6FE214681220D480BF0F5FD0D4B0122C3F8BC
:20104000FC2FFFF763FE0B4A1378DBB21370FFF7AFFC204602B010BD6C040020E2250020E1
:2010600000010040E3250020C0010020E803002000100040D0010020144B1B78B3B900B5C7
:2010800003F0FF02124B196883B081B9114B1A684AB119601B68019381220F48019B0BF017
:2010A000C1FDFFF727FD03B05DF804FB70471A601A68094B009209480099012283F8802090
:2010C00001F024FF03B05DF804FB00BFD00100203011004034110040E8030020C001002053
:2010E00000B585B000230390194601AA44F201000193029300F004F805B05DF804FB00BF32
:2011000072B6094B1B68DB0700D500BEBFF34F8F0649074BCA6802F4E0621343CB60BFF38D
:201120004F8F00BFFDE700BFF0ED00E000ED00E00400FA0572B6024A136801331360704795
:2011400000050020034A1368013B136003B962B6704700BF00050020054A13790BB1852048
:20116000704701211060537118461171704700BF04050020084B1A68D20704D4C02283F800
:20118000002301221A604FF08041044A0123C1F818351370704700BF00E100E030310020DC
:2011A00010B4094B094A0021196083B01B680193019C4FF0804102200123C1F804031360CA
:2011C00003B05DF8044B7047040100400800004010B5144B1A6882B062B10021124A196093
:2011E0001B68507900934FF080410123009CC1F8083390B10D4B1A686AB100221A601B6807
:2012000001934FF080420221074B0198C2F808131B680120984702B010BD11685371884748
:20122000E8E700BF00010040040500200401004070B443791E4C1F4E03EB430546F8232003
:20124000655D15B1082070BC704790F904308A78002B24DB03F1604303F561435201D2B208
:2012600083F8002390F90430002B07DB124D03F01F0601225B09B24045F8232003680A8899
:20128000C3F8082543790879C97803EB4303E218012550709170E554002070BC7047074D43
:2012A00003F00F0352011D44D2B22A76DAE700BF0C0500201005002000E100E0FCEC00E0E2
:2012C0000368044A01211960437903EB43030221D15470470C05002010B403680022C3F88E
:2012E000002183B0D3F80031026801930123019CC2F8443311B10268C2F8043303B05DF889
:20130000044B70472DE9F043002585B02B4E2C4FDFF8B090A8464FF4803406E00135032DE8
:201320004FEA440406F104061AD0D7F804332342F4D03368002BF1D0C7F84843C7F8084337
:20134000C6F8008033680393E8B2D9F80030039A01359847032D4FEA440406F10406E4D16A
:20136000174BD3F80423D10702D5D3F80021C2B9134BD3F80423920702D5D3F8042112B988
:2013800005B0BDE8F0830022C3F804210D4AD3F80431019305201368019A984705B0BDE81F
:2013A000F0830022C3F80021064AD3F80031029304201368029A9847DAE700BF40B1004010
:2013C00000B000401005002030B5204C94F86A3083B013B1082003B030BD04F12F0304F196
:2013E0005F01FF2203F8012F8B42FBD1184A4FF0FF302060A2F159042146002307E0072BC5
:2014000041F8040F02F1010288BF02F8010C0133DBB20C2BF3D1062200210E480BF002FCE8
:201420000D4BC02283F8062340221A600B4B0C4A002018601B680193019D4FF00041012355
:20144000C2F8041384F86A3003B030BD140500206D0500207805002000E100E07C610040BF
:2014600000600040034B93F86A00003018BF0120704700BF14050020F0B54D4E351895F997
:201480003030002B01DB0820F0BD8B78C3F3400CBCF1000F13D0336801337CD000274FF0EB
:2014A000080E7B1C06EB870404E054F8045F01350CD0013373451F46F7D30420F0BD336AD5
:2014C00001336DD008274FF00C0EEAE735187CB246F8272085F83040BCF1000F02D137444B
:2014E00087F858008B785A071CD4DD0744D51F2887BF304B00F01F0202464FF0A04303EB53
:201500008203D3F8002722F00202C3F800272A4DC20800F0070EAF5C012303FA0EF33B436B
:20152000AB548B7813F002030AD1083C2644097896F8602042EA811286F860201846F0BDC1
:20154000A30003F1804303F5C0430978D3F8104524F44F3424F44074C3F81045020209040D
:20156000D3F8100501F4403102F47C520A430243C3F810250020F0BD1F284A7887BF0D4D69
:2015800000F01F0303464FF0A04503F5E073920045F82320BBE70024326085F83040A1E7A2
:2015A00008231F46326285F830301C4697E700BF140500200003005078050020F0B43A4D37
:2015C0002E1882B096F93030072B20DD2B4493F858309B09032B45D0012B14BF4FF4403159
:2015E0004FF400311F284DD900F01F002F4B03EB8000D0F8002722F44032C0F80027D0F8F5
:2016000000370B43C0F8003702B0F0BC7047DAB2072AF9D8980000F1804000F5C04003F181
:2016200040029200D0F8104592B202F18042002744F0010402F5C042C0F810450197019829
:2016400017600029E0D096F9302055F82220002ADAD00122164902FA03F3C1F8043302B0E2
:20166000F0BC70471F2810D9104BD3F8103500F01F00C340DB0748BF4FF44031B6D44FF4F0
:201680000031B3E74FF0A043B1E74FF0A0421346D2F81025C24012F0010F14BF4FF44031B1
:2016A0004FF40031A3E700BF140500200003005000600040184B034493F93030072B13DD89
:2016C0001F288ABF154B4FF0A04300F01F0003EB8000D0F8003723F44033C0F80037D0F83B
:2016E0000037C0F800377047DAB2072A13D810B49A0002F1804202F5C042094CD2F8100525
:20170000012120F0010001FA03F3C2F81005C4F808335DF8044B70471405002000030050F8
:20172000006000402DE9F04F89B0002216460292039217466F4B704D704C012203E0A34259
:201740004FEA420213D0184653F8041B0129F6D1D5F804130A42F2D043F8047C01680091C9
:20176000A34246EA020600994FEA4202EBD1644B1A68012A00F0A98016F0FF0F1AD0614F57
:2017800001250024A30003F180432E4203F5C0434FEA45050BD0D3F8100557F82420D3F89E
:2017A0001015C0F30520C1F3014102B190470134082CE7D1002E02DB09B0BDE8F08F524D04
:2017C00000224FF0FF3305920492A5F16408069307934E4C0027012614F9013B5A1C32D06B
:2017E000DBB223F0C00008AA4FEAD00C02EB0C0E03F007021EF8081C06FA02F2114222D04C
:2018000008EB0009990999F9309058F82990B9F1000F3AD003293AD01F288BBFDFF8F0C0BE
:201820004FF0A04C03F01F0303460CEB83031EF818CCD3F800E71CEA020FCEF3014E1AD1E4
:20184000BEF1030F2ED0A542C6D1002FB4D04FF0A0430299D3F810352D4A9942D2F810257A
:2018600002D103999142A7D0049805990293039206900791ADE7BEF1020FE4D1032935D0E3
:20188000B9F1000FDFD0C847DDE70329DBD10DF1100B0DF1100A1BF80CB04BEA020B0AF8F1
:2018A0000CB0B9E70329EBD14FF40032D3F800E72EF4403EC3F800E7D3F800E7013742EA65
:2018C0000E02FFB2C3F80027DAE700221A601B6801934FF0A042019BD2F810250C4B02924A
:2018E000D3F81035039346F0004645E74FF44032DCE700BF00610040006000402061004061
:201900007C6100401405002078050020740500200003005000B5084B0849094A00201860A4
:2019200083B01B680193019BD1F808051368C0B2984703B05DF804FB00D1004000D00040F7
:201940008005002010B5074C236882B03BB1064B1B6898470023236023680193019B02B05B
:2019600010BD00BF000101408405002070B5114B114A1C7811600CB1082070BD0F4E027826
:2019800001211970C6F80C25416805464FF47A720023C803490C0AF0E5FEC6F804052B7AFE
:2019A000074A5B01DBB282F810334FF480331360204670BDE5250020840500200000014020
:2019C00000E100E0044B054901220220C3F804231A600870704700BF00000140E5250020AF
:2019E00010B504460020FFF7A5FB0E4A1378072B05D904240020FFF7A5FB204610BD0A49CB
:201A00002370581C1070D1F80805012202FA03F30343C1F8083500240020FFF793FB2046EA
:201A200010BD00BFE42500200000014000F5C070024B034A43F82020704700BF00000140BF
:201A40003546526E10B54FF0804386B0D3F80443620705D5D3F8082103F58473002A4BD1D0
:201A6000A30603D5294B1A68002A3CD1600603D5274B1A68002A2CD1210602D5254B1A686F
:201A8000F2B9E20502D5244B1A687AB9A3050BD5224B1A6842B100221A60214A1B6805932D
:201AA00002201368059A984706B010BD00221A601B4A1B68049301201368049A9847E5E788
:201AC00000201860164A1B6803931368039A9847D7E700221A60134A1B6802930120136893
:201AE000029A9847C8E7002018600E4A1B6801931368019A9847B9E700221A600A4A1B68AD
:201B000000931368009A9847AAE700BF14010040180100401C01004020010040240100401D
:201B2000900500208C0500208805002008B5FFF789FFBDE80840FFF74BBB00BF10B44FF0AC
:201B400080414FF080520020C1F80C015E4BC1F81001C1F83805D2F80414C3F82015D2F8C8
:201B60000814C3F82415D2F80C14C3F82815D2F81014C3F82C15D2F81414C3F83015D2F8CD
:201B80001814C3F83415D2F81C14C3F84015D2F82014C3F84415D2F82414C3F84815D2F815
:201BA0002814C3F84C15D2F82C14C3F85015D2F83014C3F85415D2F83414C3F86015D2F865
:201BC0003814C3F86415D2F83C04C3F86805D2F840043E49C3F86C050968D2F84424C3F834
:201BE0007025082924D04FF08043D3F80024D20744BF6FF00102C3F80024354AD2F888301C
:201C000043F47003C2F88830BFF34F8FBFF36F8F4FF01023D3F80022002A23DBD3F80432E0
:201C2000002B1FDB2B4B2C4A1A605DF8044B70472A4B1B68002BD6D129482A4A2A4C046035
:201C40002A492B4BFB20C2F818050A681B68294822F00F0203F00F0313434FF400720B60A5
:201C60000260C0E7244B0122C3F80425D3F80024002AFBD04FF0102312221F49C3F8002216
:201C8000D1F80034002BFBD04FF0102212211A4BC2F80412D3F80024002AFBD00022164913
:201CA000C3F80425D1F80034002BFBD0BFF34F8F0749124BCA6802F4E0621343CB60BFF373
:201CC0004F8F00BFFDE700BF00C000403001001000ED00E0D80100200090D0033401001015
:201CE0008C56004000F0004048810300E40E0040580200104096024000E001400400FA05EE
:201D000010B568B101280AD10C4C2369A07033B10CCB0120226198472369002BF8D110BD62
:201D2000064CA36801226270002BF8D00CCB0020A2609847A368002BF8D110BD9405002001
:201D400010B50B4C237882B013B1852002B010BD08486360A3602361E360FFF7FDF9019058
:201D6000FFF708FA01980123237002B010BD00BF94050020011D000038B5154DAB7804464A
:201D800073B110B14368012098470020FFF7D2F9EB680133EB600020BDE83840FFF7D2B942
:201DA00003F0FF00FFF7C6F964B12A6942B1944208D0134601E09C4204D01B68002BFAD1CE
:201DC00022602C61EB68002BE2D1FFF7E9F9DFE7940500200649074A074B9B1A03DD043BA6
:201DE000C858D050FBDCFFF7A9FEFEF73FFA000014D5000000000020C4030020FEE7FEE747
:201E0000FEE7FEE7FEE7FEE7FEE7FEE7FEE7FEE770B503899E2B044627D023D9A32B0CD039
:201E2000BC2B35D100F108050A21284604F09AFF012815D9BC232381F6E700F108052021DB
:201E4000284604F08FFF01280AD994F852302F2B22D0224A1021002311702381022070BDF8
:201E6000002070BDA3B99E23038104F108052846202104F077FF0128F2D90422184904F1E9
:201E800052000AF013FF0028E3D1A3232381D6E700232381032070BD94F85330202B13D08D
:201EA000284604F059FF2044002680F85160012204F1520104F16C000AF00AFF84F86D609D
:201EC000012384F87430B5E70122064904F16C000AF0FEFE002384F86D30F1E7002D0020F8
:201EE000C4CE000084CF000070B5838D622B04460D4608D0752B20D01BB10023A3850320FC
:201F000070BD6223838528460AF0C8FE04F12C0602462946304604F0C7FE01280BD9752327
:201F2000A38507480AF0BAFE05490246304604F0BBFE0128E1D8002070BD00F12C06F0E796
:201F4000A8CE000038B5B0F85030882B04460DD025D8002B36D0862B2FD12D492046FFF76B
:201F6000C3FF012842D98823A4F85030A38D002B3ED0552B0AD127480AF090FE2549024623
:201F800004F12C0004F090FE01282FD9224A002310211170A385A4F85030022038BD8E2B18
:201FA0001AD08F2B09D1236F2046984701281DD9194A10210023117023670023A4F85030AC
:201FC000032038BD03676D3000F080FA0546206788B18E23A4F8503010492046FFF784FF68
:201FE000012803D98F23A4F85030DCE7002038BD5523A385BFE70122094904F16C000AF020
:2020000067FE862384F86D50A4F85030A5E700BF24CF00004CCE0000002D0020CCCE00001E
:202020003CCE0000F8B52C4D2B7813F03006014617D11A0615D413F04007044626D10028A9
:2020400047D01B0716D400F083FF2046FFF7E0FE94F87430012B0CD12046BDE8F840FFF73F
:2020600071BF31B100230B671C48BDE8F84001F069B9F8BD00F072FF0028E6D020232767A0
:20208000214616482B7001F05DF9DEE7134801F03BF90446E8B1124B014604F15205186801
:2020A00004F004FF294604F10800192204F0B8FE294604F12C00192204F0B2FEA4F850601D
:2020C000266784F874604FF4A061204600F02AFFBBE720232B70F8BD002D0020DC010020E1
:2020E0000C2D002008B54FF4A04004F0CBFE0248BDE8084001F0F6B8DC01002010B50388C7
:2021000004465BB1A62B05D1094B1B788B420BD0012010BD00230380032010BDFFF7E2FFD8
:20212000A6232380012010BD1046FFF77BFFF7E7373100202DE9F0470027DFF898A0224E26
:20214000DFF8949080463D4606E0002F22DB2ED001370235102D1BD008EB050218F8053055
:20216000547804EB0324A4B2002CEED0002F11DD30684FF0FF372346C0F5807152464844E0
:2021800003F00EFB336802351844102D3060E3D1BDE8F0873068002DEDD0C0F580710B4AFB
:2021A000484403F0FDFA336818443060E3E73068074AC0F58071484403F0F2FA3368184467
:2021C00030600127C5E700BF9C06002050D000004CD0000054D00000A00600202DE9F043AB
:2021E000838D672B89B0044600F013811BD9912B00F00C8140F29B80952B00F08380992B45
:202200000BD100F12C06A2480AF048FDA0490246304604F049FD012870D900230320A385D5
:2022200009B0BDE8F0835A2B0BD006D95D2B7BD0642BF2D100F12C064DE0002BEDD15A23B3
:20224000838594480AF02AFD04F12C0602469149304604F029FD012850D98F4D8F482B6808
:202260008F4AC3F58071184403F09AFA2B685D2218442860A28589480AF010FD87490246EC
:20228000304604F011FD012838D9834D854F00232B6006F0DFF93860002800F0DD802868CF
:2022A000DFF8F881804AC0F58071404403F078FA2B68034438682B60FFF73CFF29687B4AE9
:2022C00008EB0100C1F5807103F06AFA2B68642218442860A28571480AF0E0FC6F49024659
:2022E000304604F0E1FC012808D96E4F6A4D386800232B6006F0B4F93860CDE7002009B003
:20230000BDE8F08300F12C0664480AF0C7FC63490246304604F0C8FC0128EFD95E4B00223B
:202320001A609923A3856EE700F12C06A3E7802B7FF473AF00F12C0658480AF0AFFC5749F5
:202340000246304604F0B0FC0128D7D9524D584F00232B6004F076F83860002800F08A8036
:202360004369002B4ED0534BDFF83081D3F8189001466846C8473B6804A85969C84728681B
:20238000494AC0F58071404403F00AFA2B68034468462B60FFF7CEFE2968474A08EB01009E
:2023A000C1F5807103F0FCF92B68034404A82B60FFF7C0FE29683B68404A5B6808EB010054
:2023C000C1F5807103F0ECF92B68384A034408EB0300C3F580712B6003F0E2F92B689122E4
:2023E00018442860A2852D480AF058FC2B490246304604F059FC012880D92D4F264D386883
:2024000000232B6004F024F83860A6E700F12C06E9E7224F00F12C0620480AF03FFC1F494D
:202420000246304604F040FC01287FF667AF1A4D00232B6003F03CFF00287FF772AF296867
:202440001F4A7818C1F5807103F0AAF92B68802218442860A2856FE72868104F194AC0F5A9
:202460008071384403F09CF92B68672218442860A285D1E72B680948134AC3F58071184442
:2024800003F08EF92B68952203442B60A2853BE738D0000090CF00009C060020A00600206E
:2024A000D0CF0000A4070020E4CF0000F0CF0000A0070020DCD300001CD0000028D00000E6
:2024C00004D00000F8CF000030D0000000487047DD210000144A154915482DE9F04190462E
:2024E0000F46064603F036F91248134C03F032F904F1600514F8023C13B1237C012B04D932
:202500002034AC42F6D1BDE8F08142463946304603F020F9094803F01DF9204600F014FA55
:20252000074803F017F9EBE7C4D4000064D00000DCCD00006CD000007626002084D00000B6
:2025400048D0000010B5054B054C01221A700021A3689847E368BDE8104018473131002024
:20256000DCD300000021014800F008BC9403002038B5674CFDF7EEFEFDF790FF00F050FB99
:2025800000F020FC0021634800F0F8FB00F044F9FEF7BCF800F018FA00F0EEFCFDF7E2FEFA
:2025A00001F04EFB01F064FF00F016FB2368022B3BDC0822584959480AF04BFB0021584850
:2025C00000F0DCFB4FF0FF3004F054F82368022B054613DCFDF7F4FEFFF7C4FF514800F06C
:2025E000C5F8FEF7B7F800F007FC0446FEF7BAF814F0FF0FF7D1FDF7E9FEF4E74A4A4B49DE
:202600004B4803F0A7F84B4803F0A4F82368022BE0DD002D7AD0A81C00F096F92368022B8C
:20262000D8DD454803F096F8D4E73F4A3F49404803F090F8414803F08DF82368022BB8DDBA
:20264000394A3A493A4803F085F83D4B3D48196803F080F82368022BABDD334A33493448D4
:2026600003F078F8384B3948196803F073F82368022B9EDD2C4A2D492D4803F06BF8344BAB
:202680003448196803F066F82368022B91DD264A2649274803F05EF84AF6CD312E4803F088
:2026A00059F82368022B84DD1F4A2049204803F051F81A21294803F04DF82368022B7FF728
:2026C00078AF194A19491A4803F044F8244B2548198803F03FF82368022B7FF76AAF124A33
:2026E0001249134803F036F81F4803F033F82368022B7FF75EAF084800F036F92368022B1C
:202700007FF757AF0C4803F025F852E7284683E7080200200C0200202C260020F8270020BF
:2027200000030020B8D4000088D0000064D00000DCCD000044D1000048D0000090D0000028
:20274000DCD30000B8D00000F0D20000C8D00000B4D20000D4D00000E0D00000FCD0000042
:20276000CC2500201CD100002CD1000010B50446006830B1002100F001FB54F8040F002872
:20278000F8D110BDF0B5038883B005465BB14A2B04D188291BD0012003B0F0BD00230380DC
:2027A000032003B0F0BD194800F01EFD044630B1A168201D00F0C2F92468002CF8D1144B2E
:2027C00001221A704A2301202B8003B0F0BD0F48019200F009FD04460028F3D0019A031DE3
:2027E0009A4205D02468231D002CEBD09A42F9D121460648074E00F049FDA3696269376819
:2028000032600BB1E06998473760DBE7A8070020E62500203809002010B5064B0648002406
:202820001C7000F0DDFC21460448BDE8104000F0A5BA00BFE6250020A8070020F80100207A
:2028400070B50E4C049E257882610446C361466135B9A1600A482146BDE8704000F0C6BC53
:20286000084D094B2E682B60043000F067F92E6021460348BDE8704000F0B8BCE6250020E6
:20288000A807002038090020F801002010B5044C82B024680094FFF7D3FF02B010BD00BF82
:2028A0003809002070B5094B1B7804463BB1084D084B2E682B60043000F04AF92E60214650
:2028C0000548BDE8704000F091BC00BFE625002038090020F8010020A807002010B50A4BCC
:2028E0001B7804463BB9C360036121460748BDE8104000F0CBBC043000F04CF92146034843
:20290000BDE8104000F0C2BCE6250020A807002038B50B4B1D785DB904460A4800F064FC80
:2029200010B90AE0006840B18442FBD1002038BD0430BDE8384000F01FB9012038BD00BFF6
:20294000E6250020A807002000B58BB002462821684607F0CDFB6946024802F0FBFE0BB0F0
:202960005DF804FB78D10000F8B12DE9F041134FDFF85080054601260024CCB1E30709D5E6
:202980002978384602F0E6FE082E0CD0013401360135F2E7404602F0DDFE2978384602F051
:2029A000D9FE082EF2D1BDE8F081054802F0D2BE2978384602F0CEFEE8E700BF90D1000096
:2029C0007CD100008CD10000704700BF10B50E4C2368B3B1FDF792FD236893E812009A682C
:2029E0002144091A4AB192E8180023441B1A9268994228BF1946002AF5D1044B0844186008
:202A000010BD024A136010BDB0070020AC0700202DE9F843038805467BB1592B08D1872953
:202A200012D0822920D059232B800120BDE8F883002303800320BDE8F883264A1360592369
:202A40002B800120BDE8F883224F39680029EAD0CB689A4203D026E0CB689A4222D18968BA
:202A60000029F9D13960DEE71A4FDFF86C804FF000093C68002CD6D0002604E0A36826469A
:202A8000002BD0D01C46204600F068FA0028F5D022468821E06800F00DFA78B1404600F075
:202AA00035FAEBE739608B68002BBCD0D868824207BF9B688B6019469B68F5E7E060A36891
:202AC0002EB1B360C4F80890FFF780FFD1E73B60F8E700BFB00700200C02002010B5044636
:202AE000104800F013FA1049E3680A684BB142B194420FD0134601E09C420BD09B68002BA6
:202B0000FAD10A4BA2601B68E3600C60BDE81040FFF75CBF054B1B68E360BDE81040FFF75A
:202B200055BF00BF0C020020B007002038090020014800F0EBB900BF0C02002010B5044683
:202B400000F0F0F92046BDE81040FFF7C7BF00BF10B5044600F0EEF92046BDE81040FFF7CF
:202B6000BDBF00BF10B5044600F0F2F92046BDE81040FFF7B3BF00BFC068B0FA80F0400923
:202B8000704700BF024B1868003018BF01207047B007002010B50F4B1A688242044613D0AA
:202BA00072B19368984208BF134605D043B19A68944201D01346F9E7A2689A60FFF706FF53
:202BC0000023A360E36010BD82681A60FFF7FEFEF6E700BFB0070020034A04499079D37907
:202BE00003EB00230B8070472C260020CC25002010B541600446FDF79DFC206010BD00BFB6
:202C000010B50446FDF796FC23686168034A0B44C01A90428CBF0020012010BDFEFFFF7FAF
:202C2000FDF78EBC10B5084C206858B100224368816822609847236823B11868BDE81040C1
:202C4000FDF7B2BC10BD00BFB40700202DE9F843DFF8A080264ED8F800503768854208D091
:202C6000002D36D02B4601E0002B34D01B689842FAD170B3837B89460446E3B10023837391
:202C80006DB1AC42284622464FF0870104D0AB7BDB0701D500F030F82D68002DF1D1A36832
:202CA0003BB14C4505D034600022832104F10C009847D8F80050AC4214D04DB12B689C4227
:202CC0000BD02BB11A68944208D01346002BF9D13760BDE8F883BDE8F8832B4622681A6073
:202CE0003760F6E72368C8F800303760F1E700BF380900203C09002070B586687EB1044665
:202D00000A4802230460A37304F10C000D46B0470238012804D9832D02D00123A37370BD4E
:202D200021462046BDE87040FFF790BF3809002070B50C4A0C4B146800251D7084B101266F
:202D400001E0246864B1E37B002BFAD0A673E573204600228221FFF7CFFF2468002CF2D1C3
:202D600070BD00BF3C090020EA250020024B1878421C1A70704700BFE825002070B50F4DEA
:202D80002C68844206D034B1234600E01BB11B689842FBD170BD0028FCD00346084E0460BC
:202DA0000A4601200021346898739981184681212B60FFF7A1FF346070BD00BF3C090020BA
:202DC0003809002070B407480749084A084D094C00238A2603700B6013602E70237070BC52
:202DE000704700BFE92500203C09002038090020E8250020E72500202DE9F041234D2B78B6
:202E00000BB1FFF795FF224E3378BBB12148224F027802EB420189007C18013202F01F02FE
:202E2000013B0270A0687F5CD4F80480DBB2337098B1812F06D0827BD20705D42878184407
:202E4000BDE8F0810123837342463946FFF754FF337828781844BDE8F081104A146834B972
:202E6000ECE7A37BD9070AD42468002CF0D02B78002BF6D0FFF75CFFA37BD907F4D54246F7
:202E800039462046FFF738FFEEE700BFEA250020E9250020E7250020B80700203C090020BF
:202EA000024A034B10781B7818447047E9250020EA250020F0B40C4D2C78202C11D00B4BC9
:202EC0000B4F1B78234403F01F0303EB43039B00FE18F9540134B06072602C700020F0BCD8
:202EE00070470120F0BC7047E9250020E7250020B807002038B5837B034CDB07256801D5DF
:202F0000FFF7FAFE256038BD3809002038B1837B013B012B03D8024A01231370C3737047DE
:202F2000EA25002010B541600446FDF7E7FA206010BD00BF10B50446FDF7E0FA22686168A1
:202F4000C2F101031844884284BF5218226010BD10B50446FDF7D2FA206010BD10B504466D
:202F6000FDF7CCFA23686268C3F101031844904294BF0020012010BD82B002AA074B42F891
:202F8000043D9A4288BFCD2103D903F8011B9342FBD10348002102B0FFF7F0BE3831002000
:202FA0001C02002038B5124C124DFDF7DBFB2378CD2B08D0AC4202D30EE0AC4212D014F867
:202FC000013FCD2BF9D1AC4202D30BE0AC4209D014F8013FCD2BF9D0FDF7C4FBAC4203D2F7
:202FE000281B38BDFDF7BEFB4FF0FF3038BD00BF383100200000042070B5038804465BB117
:20300000912B05D12148FFF7B7FD70B9012070BD00230380032070BD4FF4A0611B48FFF701
:203020008DFD91232380012070BDFFF7BBFF184D184B061EA5EB030518DB002D16DBAE422C
:203040000DDD154B1B68002B09DD144A1449154802F080FB2A463146134802F07BFB0B4810
:20306000FFF776FD91232380012070BD0A4B1B68002BF4DD094A0A490A4802F06BFB2A46AE
:2030800031460A4802F066FBE9E700BF40090020000004203831002008020020A4D10000D0
:2030A000D8CD0000DCCD0000D8D10000ACD100000023013A0160027143718371704700BF4C
:2030C00010B4817942790479521A224208D003464A1C00682240405C9A715DF8044B7047D7
:2030E0004FF0FF30F9E700BF2DE9F0410488752C064630D07C2C27D024B1002303800320C6
:20310000BDE8F081304F314DFFF730FE304B3A6818702C60002A55D023462E4C984604F83B
:20312000038000219368802098472B6801332B6057F82320002AF2D1DBB2274A1370752387
:2031400033800120BDE8F081214B1B788B421CD00120BDE8F081DFF880801C4D98F80020A6
:203160001E4F00233B602B60002AE8D0194CE256002A18DB2B6898F80020013393422B6026
:20318000F5DB3B68002BECD1D9E7104D114CDFF84880124F2B683A68E15C013201F07F0144
:2031A000E1543A60E7E7084A094952F8232009780020FFF77FFE0028ECD17C2333800120D5
:2031C000BDE8F0811346B8E7B80100205409002032310020FC250020EB250020500900201E
:2031E00000230360704700BF0068704710B404685CB1A14224D023680BB906E01346994237
:2032000010D01A681C46002AF8D100230B6002680AB911E01A461368002BFBD111605DF8B3
:20322000044B704764B10B68236000230B6000230B600268002AEED101605DF8044B704752
:203240000B680360F1E700BF30B4056865B1A94218D02B682C460BB906E01346994207D00D
:203260001A681C46002AF8D10D60016030BC704744B10B68236000230B6005680D60016052
:2032800030BC70470B680360F5E700BF10B404685CB18C4214D023680BB906E013469942C2
:2032A00006D01A681C46002AF8D15DF8044B704734B10B68236000230B605DF8044B704742
:2032C0000B680360F7E700BF03682BB100201B680130002BFBD170471846704700B1006884
:2032E000704700BF10B5044642884068002109F099FC23886288A06802FB03F20021BDE8D3
:20330000104009F08FBC00BF30B44588BDB141680B7863B14A1C002302E00C78013234B1F4
:203320000133AB421146F8D1002030BC704701220A700588806803FB050030BC7047284663
:20334000F3E700BF30B44488826854B18A420CD00588002301E0914208D00133A3422A44CA
:20336000F9D14FF0FF3030BC704700234268D15C0029F6D00020D05430BC704783688B42EA
:2033800008D84288008800FB023081422CBF00200120704700207047418849B143680020C3
:2033A000194413F8012B02B901308B42F9D170470846704708B509F085FB80B208BD00BF4E
:2033C0000F4B0121002219601946C3F80021D1F80031002BFBD0D1F80805094A0023C0B2ED
:2033E000C1F80031D2F80031002BFBD0D2F80815012340EA012080B2536009F03BBB00BF09
:2034000000D0004010B590F84C10094A013180F84C100446034680212030FFF737FA054B9F
:20342000224619780020BDE81040FFF743BD00BF05340000343100202DE9F04103880446EF
:2034400063B1B3F5867F04D182290DD00120BDE8F081002303800320BDE8F0814FF48673FC
:2034600023800120BDE8F081FDF788F9BFF35F8F1649174B0E6800220A601F781A70FFB2C8
:20348000BFF35F8F134DFDF77DF928680028E5D0DFF8448003E055F8040F0028DED090F819
:2034A000463026FA03F3DA07F5D590F8453047FA03F3DB07EFD5FFF72BFA0028EBD02B686A
:2034C000424618460221FFF7E1F9E4E768090020EC250020A40100203535000010B4084A41
:2034E000084C1368194311602178012202FA00F30B43DBB2237004485DF8044BFFF706BD6E
:2035000068090020EC2500203C02002010B5044690F8461090F84500FDF794F910B994F8FB
:20352000440010BD012806BF94F8440080F00100002010BD70B50446FFF7EAF900B970BD30
:2035400004F120052846FFF7E3F906462046FFF7DDFF01280ED00028F1D1002EEFD1284640
:20356000FFF7BCF90D4B224630461978BDE87040FFF7A0BC002EE2D000262846234684F8D9
:203580004C60074A7E21FFF781F9064B304622461978BDE87040FFF78DBC00BF3331002088
:2035A0000534000035310020F8B5FFF7DFFB304B304C1870FFF7DAFB2F4B304F1870FFF70E
:2035C000D5FB2F4922682F4B08700025FF2139727B60FD60002A42D02B4E03E054F8042FE8
:2035E000002A3CD092F8463092F84510926C03F01F0343EA41131F2BC6BF03F01F033146C7
:203600004FF0A04103F5E07342F08C0241F82350236893F8461093F84500FDF7D1F8226850
:2036200092F8463092F8450003F01F0343EA40100121FDF7C3FF22683B7A92F84510994258
:2036400001D0FF2BCAD192F84600FA68397201238340134354F8042FFB60002AC2D10B48D0
:203660000021FFF78BFB0548BDE8F84000F0BCBA35310020A40100203331002058090020CD
:2036800034310020DD340000000300503C020020F8B50488672C06460BD0792C04D0DCB1EA
:2036A000002303800320F8BD85291CD11E4C002323601E4C1C4D06E00A2816D00D2814D0F7
:2036C0002B687E2B2ADD2046FFF7FAFC431CF3D1672333800120F8BDFFF748FB144A124B2B
:2036E00010701C60E5E70120F8BD0F4C114F23680F495A1C00250978226028463A46FD54B1
:20370000FFF7D8FB0C4B2A4618688521FFF7D2FB0028CCD1792333800120F8BD05495A1C82
:20372000C8542A60CFE700BFEC090020F0090020363100206C0900203809002008B50549B8
:2037400005488022FFF7B4FC00210448BDE80840FFF714BBF8090020F00900204C0200200D
:2037600070B41A4A1A4C0023012540FA03F1C90712D59178B9B11178567801F01F0141EA27
:2037800046111F29C6BF01F01F0126464FF0A04605FA01F1C6F808150133042B02F103023C
:2037A000E3D170BC70471178567801F01F0141EA46111F29C6BF01F01F0126464FF0A04619
:2037C00005FA01F1C6F80C15E6E700BF1CCD0000000300500E4A30B40E4D02F10C04032094
:2037E0001378517803F01F0343EA41131F2BC6BF03F01F0329464FF0A04103F5E0730332EC
:20380000944241F82300EBD10F2030BCFFF7A8BF1CCD0000000300502DE9F84303880546DF
:203820005BB1FA2B04D1822915D00120BDE8F883002303800320BDE8F8839A499A4C9B481C
:203840009B4A0B800121238003801170FA232B800120BDE8F883DFF854E2924FBEF8003052
:203860003A88934200F002815BD3B3F5A26F80F00F8100248F49DFF848C24FF0C00940F240
:2038800001580CE001339BB2661CB3F5A26F04F80C00B4B200F0CE80444500F0EB80C85C73
:2038A000DB28EFD15E1CB6B2B6F5A26F00F0E880B4F5A06F00F2E6808E5DDD2E00F0B08029
:2038C0000233DC2E9BB200F0AD80B3F5A26FE6D10023002A00F084806BB101230020085CCA
:2038E000DD2800F08E80DC2800F0B4809A423ED9B4F5A06F13D8DFF8C88140F20159C85C37
:20390000DB2803F1010C04F101066ED01FFA8CF39A4204F80800B4B229D94C45EFD1002414
:2039200025E000246349DFF898C140F201584FF0C00909E001339BB2661C9A4204F80C001F
:20394000B4B214D94445EAD0C85CDB28F2D15E1CB6B2B2420BD9B4F5A06FE0D88E5DDD2EC7
:203960004DD00233DC2E9BB26CD09A42ECD801321FFA82F8B8F5A26F08BF4FF00008A7F891
:203980000080494BB3F800C0C4451BD0494A4646B44517D0935DC02B60D0731C9BB2B3F526
:2039A000A26F4FF0000607D1F2E7D05CC02856D08BB2B3F5A26FEBD09C4503F101014FF0FF
:2039C0000006F2D1AEF800803B4B1C80002C3FF43DAF3A4B1B6803B1984703F06FFA35E778
:2039E0004FF00108A7F80080CBE7581C80B28242BDD9B4F5A06F92D802339BB26FE702337F
:203A000099E72F4E4FF0DB0C601C9A4204F806C084B2ACD940F2015084427FF46CAF7EE772
:203A2000023330E7601CB3F5A26F04F80C9084B27FF432AF0023002AD2D0B4F5A06F7FF6C7
:203A40004BAF6CE7601C9A4204F80C9084B23FF679AF8CE71A4E4FF0C00CD5E7334619481A
:203A60003B80AEF80080FFF751FAADE7124B00221A80EBE600231C46002A7FF42DAFAFE712
:203A80000123D8E701230024002A7FF425AFA7E71AB10024074923462DE714464FF001089E
:203AA0006DE700BFD2250020D0250020CE250020ED2500207C0A0020EC270020780A002007
:203AC000002800205C020020014B1860704700BF780A002070B506460D46C020FCF756FE59
:203AE000002DC8BF344608DC15E0DB2818D0FCF74DFEA31B9BB2AB420DDA14F8010BC028B7
:203B0000F3D1DB20FCF742FEDC20FCF73FFEA31B9BB2AB42F1DBC020BDE87040FCF736BEA7
:203B2000FCF734FEDD20E2E7024B03481988FFF7D1BF00BFEC2700200028002038B5244A46
:203B40001378022B1ED0032B16D0DB2804BF022313702049204D0C882D88631C9BB2B3F5AA
:203B6000A26F08BF00239D420B8027D01B4BC028185514D0002038BDC028FBD101231370DA
:203B8000002038BD00F12403DBB2012B13D91449104B0988198003231370002038BD104A59
:203BA00013889C4211D09D420E4808BF1480FFF7ADF9012038BD01231370CAE7084803239B
:203BC000008808801370002038BD0C80D2E700BFED250020D0250020CE2500207C0A002039
:203BE000D22500205C02002001460148FFF7FEBA8C0F002070B505460B480E46FFF7F4FA3C
:203C000088B1044601E024686CB1237AAB42FAD1E1683140F7D063682846002BF3D09847BB
:203C20002468002CF1D170BD8C0F002008B50348FFF7D6FABDE80840FCF7B8BD8C0F002044
:203C400008B50448FFF74EFB0348BDE80840FFF749BB00BF780200206C0200200148FFF7C4
:203C60009BBB00BF6C02002038B50E48FFF74CFB054678B10C48FFF747FB0446286058B146
:203C800000F0A4FA04F19C01A4F8800004F1820000F07EFB284638BD294602482546FFF78B
:203CA00051FBF7E76C02002078020020006800F19C01823000F06CBB10B50146044607484E
:203CC000FFF75CFB00B910BD21680548FFF73AFB21460248BDE81040FFF734BB6C020020F7
:203CE0007802002010B5014604460948FFF746FB00B910BD2468B4F88010204600F028FB85
:203D000004F19C0104F18200BDE8104000F052BB6C02002038B50F4D002818BF05460E4831
:203D2000FFF762FA044650B1211D284600F0B6FB40B92046FFF7D2FA04460028F4D14FF002
:203D4000FF3038BD054A064B9068241AA01003FB00F038BD38D200005015002084020020A1
:203D6000ABAAAAAA2DE9F84F214C224EDFF88890DFF8888005468B4604F1200A54F8041FE8
:203D8000A1B18A6892B18DB1D9F80830EB1A9B1008FB03F3581C09D04868CF6800FB03700A
:203DA00020B1F35C09680B41DB0716D4A245E5D1DDB1114B114A9B68EB1A9B1002FB03F3D2
:203DC0000F4C104800222946E254F254FFF75EFABBF1000F03D1BDE8F88F9047E6E7294607
:203DE0000548BDE8F84FFFF7ADBA4FF0FF33E7E71C1500202816002084020020ABAAAAAAF0
:203E0000401500205015002010B10368072B0ED90C4A1368072B12D830B40B4C03605D1C5F
:203E20008160156044F82300012030BC7047064A52F823309842EBD18160012070470020AD
:203E4000704700BF2416002020150020F8B51A4F1A4C1B4D06463EB359B3F3687068C91AFA
:203E600091FBF0F1481C24D0B86801EB410100EB8100FFF733FAD0B1BB68C31A9B1004FB75
:203E800003F35A1C13D07268F16803FB02F3C9180DD093FBF2F35A1CDDD0EB5C3268134124
:203EA000D807D8D50846F8BD3046FFF717FA0020F8BD0020DDE700BF84020020ABAAAAAA2F
:203EC0002816002010B504461048FFF78DF9B0B10F4A104B9168401A801003FB00F36CB19B
:203EE0005A1C0BD06068E16800FB031038B10A492268CB5C1341DB0701D510BD0020014625
:203F00002046BDE81040FFF7A1BF00BF5015002084020020ABAAAAAA2816002010B50446F0
:203F20000846FFF7F7FE84B1431C0ED06368E26803FB00233BB1064A2168125C0A4112F020
:203F4000010F08BF0023184610BD0023184610BD281600202DE9F84315460E46FFF7DEFFBD
:203F600028B10024012005B12C60BDE8F88304463046FFF7CFFE0130F3D11748FFF70CFAEE
:203F80000028EEDC1548FFF72FF98146F0B1DFF85480114F124E0AE0204609F1040106F09C
:203FA00045F904464846FFF799F9814678B1BB68A9EB03039B1006FB03F318F80330002BA6
:203FC000F0D1002CE8D109F10404EBE70446201C18BF0120C7E700BF840200205015002051
:203FE000ABAAAAAA401500202DE9F04182B000284AD0354B0D46002908BF1D46294601AAA8
:204000000646FFF7A7FF00283ED02846FFF782FE471C04461AD07268F36804FB0234204637
:20402000002108F0FFFD7CB3F3687268E31A93FBF2F35A1C06D025493568C85C0122AA400F
:204040000243CA54204602B0BDE8F081DFF88880019C4046FFF758F90746D0B139461C48D5
:204060001C4CFFF7C3F8D8F80830FB1A9B10294604FB03F4381D00F00DFA611CCBD1002174
:204080007268084608F0CEFD0024204602B0BDE8F081002CF8D02046FFF73CFE441C0CD01D
:2040A000D8F8084000EB400004EB800738460021FFF758FE002FD1D1E6E739463846FFF7CB
:2040C00051FE3C46BEE700BF38D200002816002050150020ABAAAAAA84020020034610B363
:2040E00011B370B4C56844684A1B92FBF4F2501C1CD00F4E1D68B45C012000FA05F524EABA
:204100000504B454DD685C68491B91FBF4F14A1C07D0084C1D68635C0122AA4023EA0203BC
:20412000635470BC70477047084670470020EBE7281600204015002090B191B1C26843680C
:20414000891A91FBF3F14B1C0BD010B4064A0368545C012000FA03F3234353545DF8044B19
:2041600070470020704700BF4015002098B199B1C2684368891A91FBF3F14B1C0CD010B4FB
:20418000064C0268635C012000FA02F223EA020363545DF8044B7047002070474015002025
:2041A00088B179B1C2684368881A90FBF3F14B1C08D0054B986801EB410110EB810002D0AB
:2041C000043070470020704784020020F8B50E4D0E4C2A7823881344802B01DD0020F8BD13
:2041E0000B4F3946064608F034FD0A4B287819782288014457FA81F1304408F02AFD287806
:2042000023881844F8BD00BFEE250020D425002038160020D625002070B4104B104D114A17
:204220002E781B781288334452FA83F39BB21A18802A10DC013B1BB2002B07DB0A4AD45CC3
:20424000D118013B1BB20C54591CF8D130442870012070BC7047002070BC7047D6250020A0
:20426000EE250020D425002038160020084A138883420BDB10B407490C8880B21B1A204479
:204280000880138001205DF8044B704700207047D4250020D6250020014B1880704700BF22
:2042A000D4250020044A054B12781B780448134450FA83F0704700BFD6250020EE25002006
:2042C000381600200048704738160020014B1888704700BFD42500200549064A064B12780F
:2042E00008781B88104453FA80F080B2704700BFEE250020D6250020D425002038B5094D38
:20430000094C0A481A22002108F08CFC2946204600F0C0F8294604F10800BDE8384000F023
:20432000B9B800BF38D20000002600201026002004480549054A002303800B801370FFF714
:20434000DDBF00BFD6250020D4250020EE250020F8B5802928BF8021094A0A4D0A4F0C4668
:204360000023064613703B802B80FFF7C7FF31462246064808F06DFC2C802046F8BD00BF15
:20438000EE250020D4250020D62500203816002010B51A220C46054908F05BFC20461022C0
:2043A0000349BDE8104008F054BC00BF102600200026002010B51A220C460146044808F07B
:2043C00048FC214610220348BDE8104008F041BC1026002000260020024B23F81010012086
:2043E000704700BF10260020014B33F8100070471026002008B5044B0D3803EBC00000F06E
:2044000049F8012008BD00BF00260020024B0D3803EBC000704700BF0026002001490248E0
:2044200000F03CB838D200000826002070B505460E480E46FEF7D8FE044660B1012D0CD0F6
:204440001DB963680BB1984770B92046FEF746FF04460028F2D1002070BDA3683046002B29
:20446000F3D098470028F0D070BD00BFB8160020054B10B51B689847044B5B689847044B21
:20448000BDE810405B68184790CD0000B4D20000F0D20000082208F0DCBB00BF08B5082201
:2044A00008F0C8FBB0FA80F0400908BD10B50948FEF7F8F90848FFF705FD48B1064C037A0D
:2044C0005B08037201462046FFF7C0FC0028F6D110BD00BF3426002090020020014601486E
:2044E000FFF71CBD9002002080B110B50446FCF705F82368C01AB0F5963F05D2207A032890
:2045000094BF0020012010BD002010BD00207047F8B507461446D9B121F00403022B0D4600
:2045200000D0F8BD01462A48FFF7F8FC064600283FD0062DF5D0FBF7E1FF337A3060234462
:20454000102BA8BF1023022D337208BF0C340EE001461F48FFF7E2FC064658B3FBF7CEFF25
:20456000337A30602344102BA8BF10233372FBF7C5FF3368C01AE401B0F5963FA4B20ED35C
:20458000B38819229BB102FB04F41249C2F1640203FB0242A1FB02325209B280F8BD337AEF
:2045A000042BB38834BF19220A22002BEBD1B480F8BDF8BD3346394608220548FFF714FD3C
:2045C00006460028ADD047F6FF73C380C6E700BF900200201F85EB5138B505460420FFF7A8
:2045E00003FF294604B22448FFF798FC90B3B0F9062047F6FF739A4237D004EB84045A2108
:2046000064001E4B12FB014283FB0213D217C2EB6312C2808388E3B9B0F9063047F6FF7269
:20462000934224D06FF03B029342A8BF13466FF058029342B8BF13465A334FF4706292FBF3
:20464000F3F39BB2B3F5C07F28BF4FF4C073838038BD38BD0346294608220748FFF7C4FC0F
:204660000028F6D047F6FF73C380C480D2E74FF48073838038BD00BF900200201F85EB51DE
:2046800038B50948FFF71EFC60B1074D044621462846FFF723FD21462846FFF7D7FB04464B
:2046A0000028F4D138BD00BF9002002010B500210548FFF7A9FB0023044A05484FF4E131C7
:2046C000BDE81040FEF7E2B890020020AD44000034260020F8B5FBF711FF104F06463C465D
:2046E00000250D20FFF792FE2146FFF7D7FE103420B90135102DF4D10020F8BD072007EB6D
:204700000515FFF771FE2B7B8342F5D1A868301AB0F5206F8CBF00200120F8BD7C17002067
:2047200070B5174E002435460D20FFF76FFE2946FFF7B4FE1035F8B90134102CF4D10F244A
:2047400006EB0410A0F1100529461022013C08F080FA2846002CF5D10720FFF745FE3073FB
:20476000FBF7CCFEB0600D20FFF750FEBDE8704001460348FFF78EBE002CE1D1ECE700BF63
:204780007C17002040B130B40D460446114628461A46234630BC1847704700BF30B591B07F
:2047A000FFF780FD0446FFF791FD6A460146204600F082FAC8B30446FFF758FDA8B39DF8EF
:2047C00010100C20FFF708FE9DF813100820FFF703FE9DF817308BB1BDF81C5000F0EAF8AF
:2047E000854205D0BDF81C204FF6FF739A421CD169469DF8170000F07BF9D8B102A90D208C
:20480000FFF7F8FD9DF815303BB14FF6FF710720FFF7E2FD204611B030BD9DF81A1007203C
:20482000FFF7DAFD204611B030BD4FF0FF34204611B030BD69460E20FFF7DCFDDEE700BFE1
:2048400000283BD0002A39D0F8B506460C2014460D46B04700232074A37415B3E374637564
:204860000920B047002701232376A07567740720B047A07600F09EF8E0830A20B0470128DD
:2048800016BF03236776637600F094F8A0830B20B047012813D04DB10223E3750123237563
:2048A000F8BD0820B0476575E074D9E70323E375637E022BF2D000232375F8BD704700239E
:2048C000E375F5E730B591B0044600F073F84FF6FF73984259D040226846002108F0A2F95B
:2048E0002D4B1A782AB364BBFFF798FD6A46C1B22A48FFF7A5FFFFF791FD00283DD0FF231D
:204900008DF800308DF801300D20FFF77FFD014602A8FFF7BFFDFFF7C5FC0E90FFF7D6FCCD
:204920000F90684600F0F4F80546D4B9284611B030BD01221A70FEF73DFD194B1870002C66
:20494000D2D00720FFF750FD0028CDD1144D2978F1B189B20720FFF73FFD2B7801332B70DB
:20496000C2E7FFF759FC80B1FFF7ACFC0146684600F01AF9284611B030BD0E20FFF746FDF9
:2049800001466846FFF786FDBEE74FF0FF35CDE701212970DEE700BFEF250020E94300003E
:2049A000F02500200120FFF78DBF00BF0020FFF789BF00BF014B1888704700BFB40300204A
:2049C000B8B130B4037A022B14D00378022B19D00379D3B9447A14F0030418BF0124C37962
:2049E00013F0030318BF012301B10C6002B1136030BC7047C579447A037945B90CB9012B65
:204A0000F2D0F3B100231C46EEE70024E7E704B9EBB1032D0FD1032C1BD0022C1DD0002B1B
:204A2000F0D1022D0DD0032D1AD1A4F10204B4FA84F46409D8E7022DEFD174B9002BE1D1A8
:204A40002346A01E01288CBF00240124CCE70123E7E7002BD6D10123E7E7002BF7D00123F3
:204A60000024C1E730B504460D46084683B00021062208F0D7F8637DD9075CBF01232B70BD
:204A8000237E012B23D901AA694604F11000FFF797FF009B0BB10223EB70019B0BB102230E
:204AA0006B70E37D03F00303022B03D0032B0CBF08230023AB70637E03F00303022B03D086
:204AC000032B0CBF082300232B7103B030BDE37D9A0706D0637E9B0703D0E28BA38B9A42AF
:204AE00002D000232375CEE701232375CBE700BF02280CBF022308230B4403E013F8012D97
:204B0000FF2A03D18B42F9D1012070470020704730B583B06946FFF7A5FF9DF800309DF897
:204B200001509DF802409DF803109DF804209DF8050002332B4423440B441344184403B092
:204B400030BD00BF70B4437885780678C4780279DB002D0105F0100503F008032B436401B4
:204B600006F007052B4304F020049201234302F0400213430B7043798579467AC479027A7C
:204B800003F001036D0043EA861305F00205A0002B4300F00C001201034302F03002134312
:204BA0004B7070BC704700BFF0B583B00D4604466946FFF757FF04F110002946FFF7C2FFFD
:204BC0009DF80030012B04BFA37EAB709DF801300CBF03200220022B28D09DF8026076B1CC
:204BE000771E0644F6B2E219034612F80119E9540133DBB2B342F8D101373844C0B29DF84F
:204C00000330022B1CD09DF804606EB18319F21D2244DCB2034612F80119E9540133DBB226
:204C2000A342F8D13044C0B203B0F0BDA38B2B54431CA28BDBB2120A0230EA54C0B2CCE709
:204C4000E38B2B54431CE28BDBB2120A0230EA54C0B2D8E7F0B50278437885B002F0070643
:204C6000C2F3C005C2F300140846C2F38011C2F3401E03F001078DF804608DF80550C3F3D6
:204C80004006C3F381058DF806408DF80810C3F301140A229B0901A98DF807E08DF809707B
:204CA0008DF80A608DF80B508DF80C408DF80D3007F0CFFF05B0F0BD012950DD2DE9F041CD
:204CC00086B014460F4603A90546FFF7C3FF03A90A2204F1100007F0BCFF9DF81130002BB0
:204CE00039D0AE1C03A802AA01A9FFF769FE9DF81380B8F1000F43D0029B002B34D07278DA
:204D000016F8023B03EB0223A383B8F1020F57D0B8F1030F3BD09DF81580B8F1000F27D08F
:204D2000019BF3B1717816F8023B029A03EB01239BB2E383D2B1B8F1020F4BD0B8F1030F8B
:204D400031D0701B3B1A8742A663E36300DA002006B0BDE8F081AB78A376EE1CC2E7002085
:204D60007047A38BE383E6E7A383CEE7A383E2E71E4904F10800FFF78DFBA4F81E80E0E76E
:204D80001A492046FFF786FBA4F81C80C3E706F108000346621E13F8011D02F8011F9E4206
:204DA000F9D10646B7E706F10800034604F1080213F8011D02F8011B9E42F9D10646C0E71C
:204DC0000A492046FFF766FB7378237016F8023B6370A0E7054904F10800FFF75BFB73781E
:204DE000237216F8023B6372ABE700BF38D20000074A084913681844884202D810601846B8
:204E00007047054B0C221A604FF0FF30704700BFA0020020000004202C310020102970B53E
:204E20000C4605460CD90B4E01E0102C0BD92B686868102231469847103C0028F5D070BD45
:204E400008460029FBD022462B6868680149BDE8704018474CD200002DE9F04F8FB08346CC
:204E6000884601924FF0000998F80030002B00F0E780252B08BF45461DD0444603E0252BFB
:204E800000F048812C466378651C002BF7D1454500F0D680A5EB080641463246DBF8003028
:204EA000DBF804009847002840F017826378B144002B00F0C5806B7805F10108002B00F01E
:204EC000BF800025A3F12002102A1BD8DFE802F0171A1A141A1A1A1A1A1A1A111A0E1A1A50
:204EE000090045F0100518F8013FEBE745F00105F9E745F00605F6E745F00805F3E745F0B4
:204F00000205F0E7A3F13102082A00F2D880002404EB840403EB440418F8013FA3F1300289
:204F2000092AA4F13004F3D92E2B00F0D0804FF0FF326C2B00F0E480682B00F028817A2BE4
:204F400000F02F81782B00F28180DFE813F079007F007F007F007F007F007F007F007F00E0
:204F60007F007F007F007F007F007F007F007F007F007F007F007F007F007F007F007F0041
:204F80007F007F007F007F007F007F007F007F007F007F007F007F00B3027F007F007F00EB
:204FA0007F007F007F007F007F007F007F007F007F007F007F007F007F007F007F007F0001
:204FC0007F007F007F007F007F007F007F007F00B0027F007F007F00AD02AA02A7027F0027
:204FE0007F007F007F007F007F007F007F007F007F007F007F007F007F007F007F00A4029A
:205000007F007F007F007F007F007F007F007F00A1027F009E029B029802950292027F00F5
:205020009B027F007F007F007F008F028C027D007F007F0089027F0086027F007F00830228
:2050400048460FB0BDE8F08F45F4407505F4E063B3F5806F08F1010800F044815ED9B3F588
:20506000C06F00F08581B3F5E06F00F07A81B3F5A06F7FF4F9AE019A012C13688DF8203040
:2050800002F104028CBF04F1FF340024EB07019200F1B98121465846FFF7C0FE002840F0BF
:2050A0001C810122DBF80030DBF8040008A991449847002840F01181A144A144D4E62A2B2E
:2050C00000F0FB812E2B4FF000047FF430AF98F80130A3F13002092A08F1010168D800225F
:2050E00002EB820203EB420211F8013FA3F130000928A2F13002F3D96C2B88467FF41CAF9B
:2051000098F801306C2B00F03F8108F1010845F0600517E745453FF4CEAEBBE6B3F5807F6C
:205120004BD0B3F5407F7FF49FAE0198C04BC14F016815F4804F18BF1F46034604330193E8
:205140000A460023002900F07D810DF1330E7046110902F00F0C41EA03711E090A4633461A
:2051600017F80C1000F8011D52EA0301F0D1BEEB000600F0698103367823302200F8013C09
:20518000232300F8022C00F8033CC71EBFE098F80130682B00F09F8108F1010845F0400508
:2051A000D0E698F8013045F0600508F10108C9E62A2B00F079828846B9E6002AABBF25F0D7
:2051C000100501230292029315F40053039305F0E00300F0E080402B00F08F8200F28281F2
:2051E000002B00F03F82202B40F07382019991F900200431D3170191002A73F10001C0F22D
:205200003D82CDE904230023069305F4C053B3F5805F00F0DB80B3F5C05F00F0B481B3F5C4
:20522000006F00F0D5810DF1360A0026029B9E4241F6080303EA050341F20802C0F07381C0
:20524000934200F03A82002741F60802934206EB070100F07681002302931A46039B83B1C6
:20526000069B002B40F07B8105F00603022B00F04082062B7048029B08BF0123029308BF8C
:205280000246029B0B449C428CBFE41A002415F00103039304D1E90640F1118227441C469B
:2052A000029D3DB11146DBF80030DBF804002A46984790B9102FB14440F2AD813D4602E09F
:2052C000102D40F2AA81DBF80030DBF804005B4910229847103D0028F2D04FF0FF300FB041
:2052E000BDE8F08F01990B460F6804330193002F00F0D7813E782EB13E4616F8013F002B54
:20530000FBD1F61B002A02DB964228BF1646B4428CBFA41B0024EA0711D421465846FFF799
:205320007DFD0028D9D13946DBF80030DBF80400324698470028D0D1B144A14494E53946D6
:20534000DBF80030DBF80400324698470028C4D121465846B144FFF761FD0028BDD1A14476
:2053600082E5019A136804320192C3F800907BE5DBF80030DBF804003149012298470028BE
:20538000ABD109F101096FE598F8023045F0800508F10208D6E5402B00F0A88100F2B18058
:2053A000002B00F07381202B40F0DD8001990A780023CDE904230B4604330193039B069397
:2053C00005F4C053B3F5805F7FF425AFDDE90423134300F099810DF1360307939A46DDE92F
:2053E0000423D00840EA437002F00701DE083031024633460AF8011D52EA0301F1D1079B0B
:20540000A3EB0A0612E7DBF80030DBF80400012208A9984700287FF460AF2146584609F1BF
:205420000109FFF7FBFC00287FF457AFA1441BE56CD2000080D20000A4D200005CD20000BB
:20544000B0D200000DF13300302300F8013C0426013891E645F4C855F8E545F41065F5E57C
:2054600045F48065F2E545F48855EFE545F4E065ECE545F48135E9E545F40075E6E545F48F
:205480000245E3E545F42455E0E545F4A065DDE545F4C135DAE545F4B245D7E545F4A1359D
:2054A000D4E545F48445D1E545F44245CEE545F4E135CBE545F4C065C8E5019A146813468E
:2054C0000433002C0193B8BF45F0010598F8013008F1010828E598F8023045F0200508F13E
:2054E00002082FE5602B00F0BD80802B40F0F1800199073121F00701D1E9002308310191F7
:205500007AE6602B00F0C280802B2CD1019B073323F00703D3E9001208330193039B0693FF
:20552000CDE9041271E602999342A1EB06077FF48BAE002F08BF0127002302931A46F11953
:205540008CE6DDE9042313433FF485AE744B754A15F4804F18BF1A46022302937EE6012361
:205560000293714A8DE605F4C053B3F5805F00F0CF80B3F5C05F40F0AF8000230693002292
:205580000023CDE90423DDE90401684B684E15F4804F18BF1E4602460B46134300F0B480B1
:2055A0000DF1360307939A4602460B46110902F00F0741EA037118090A460346F15D0AF8D6
:2055C000011D52EA0301F1D1079BA3EB0A062DE6DDE9046732463B46134300F095800DF1D5
:2055E000360307939A46304639460A22002307F0B9F83032304639460AF8012D00230A2236
:2056000007F0B0F806460F4656EA0703EBD1079BA3EB0A060AE657B13D462A46DBF8003016
:20562000DBF804004349984700287FF456AE029DDBF80030DBF804004D4432465146A94681
:20564000984700287FF449AE039BB944002B3FF434AD21465846FFF7E1FB00287FF43DAEA2
:20566000A14401E401990A680B4604330193002A4FEAE27373F10001BFF6C3AD524263EB14
:205680004303CDE9042301230693BEE5019A0399069113680432019219460022CDE9041228
:2056A000B3E5254F06262DE6019998F802300A680431019108F102083BE401273CE7214636
:2056C00058460492FFF7AAFB049A00283FF4E8AD03E60022002394E5002306931E46002284
:2056E0000023CDE904230DF1360A9FE501990A885EE60123114A0293C3E50199B1F9002058
:205700000431D317019177E500260DF1360A8DE50023069300220023CDE9042356E600BFCD
:2057200094D2000098D200009CD200006CD2000080D200005CD20000A8D20000A0D2000081
:205740000AB90020704708B508461146FAF78AFE002008BD0FB400B583B004AA054852F8FF
:20576000041B0192FFF778FB03B05DF804EB04B0704700BFA402002038B54368934294BF67
:2057800003F1FF35154604462A46006807F061FA94E80C002A445D1B84E82400002038BDFF
:2057A0000CB410B586B008AB029053F8040B03911A4601460193074C049402AB04A80593E4
:2057C000FFF74AFB029B00221A7006B0BDE8104002B070477957000010B501210C20FEF759
:2057E000FBFD024BBDE810405B68184740D20000014B9B68184700BF40D20000014B1B6AEB
:20580000184700BF90CD0000014B5B6A184700BF90CD000010B50D4B82B01B6898470C4B79
:20582000044601A99B6A1820984701280BD0002C0198B8BF15248028D4BFC4EB0000C4F140
:20584000800002B010BD002002B010BD40D2000090CD000000F0C8B930B583B0FEF736FD8A
:20586000032815D0FFF7C4FF002811DB0E20FEF7CDFD2149FEF712FE10B9FEF7CFFD38B17C
:205880000D20FEF7C3FD1C49FEF708FE044608B103B030BDFEF71EFF0546A0B10820FEF758
:2058A000A3FD0028F4D002238DF804308DF80540FEF708FD114B82788DF80620DB68032152
:2058C00001A89847E4E7FEF72BFF0820FEF78CFD70B102238DF804308DF80550FEF7F2FCF4
:2058E000064B82788DF80620DB68032101A89847034B9B689847CBE72C26002090CD000012
:20590000F0D2000030B50F4C83B06946A56A1820A84708B103B030BD01A90420A84728B17E
:2059200000F010FA236A984703B030BD0199E36A21F0020101910420984700F003FA236A57
:205940009847F1E790CD000070B590F82D40012C05460EDD1F24FDF72DFD2B46B0FBF4F154
:20596000064A01FB140105F10C00BDE87040FCF78DBFE11C01248C40013CECE7115A0000C7
:205980002DE9F0470D468B6892F82C908046506B144693E8C000FDF779FC6868FEF78CF965
:2059A000A9681748FDF7CEFC29461648FDF7CAFC606BFDF719FC78B1002384F82C3084F8BE
:2059C0002D302046FFF7C0FF4B46424639463046BDE8F047FEF7D6BE04F10C00FCF77EFF6B
:2059E00021460948FDF752FC21460848FDF7AAFC4B46424639463046BDE8F047FEF7C2BEFD
:205A0000AC020020C4020020E4180020B8020020002800F0A6802DE9F047044682B0406B2A
:205A2000FDF7E2FB054600286DD04068FEF75AF96B490D20FEF7DEFC01210820FEF7CCFC3E
:205A4000FFF7CAFE002861DBFEF73CFCDFF8948190F80290D8F80460FEF734FC0746FEF756
:205A60003BFC01463846B047FEF7D8FCD8F818600746B047002854D1002F73D1D8F81CA092
:205A8000D04700284DD1D8F80870FEF725FCB84700286DD1FAF78EFD6FF018073F1A03E0B0
:205AA000FAF788FDC74202D5D0470028F8D0B04718B9D047002800F08880FAF77BFD6FF0C2
:205AC0002806361A03E0FAF775FDC64202D5D0470028F8D0D04700286ED10223AA6892B124
:205AE000022B21D194F82C300133DBB2002184F82C3084F82D10127A9A4229D822462946EC
:205B00000220FFF73DFF02B0BDE8F0870520AB68002BF8D022462946FFF732FF02B0BDE8E3
:205B2000F087AA68002AEED094F82D300133DBB2052B84F82D3094F82C3006D90133DBB2B9
:205B4000002184F82C3084F82D10127A9A4217D92046FFF7F9FE6868FEF7A8F802B0BDE82C
:205B6000F0877047D8F80860FEF7B6FBB04788B1022803D1AA68002AC5D0D5E70420C6E78D
:205B8000224629460120FFF7FBFEBCE79DF806304B4518D1AB68002BB5D094F82C3000206C
:205BA0000133294684F82C3084F82D002246FFF7E7FE02B0BDE8F087D8F81030032101A8D3
:205BC00098470328E2D0012388E7D8F81430984700283FF472AFAA68002A83D193E700BF3E
:205BE0002C26002090CD00002DE9F04106460E200F46FEF70BFC4D4B1A780546002A49D00C
:205C00004B4A1178002942D04B1CDBB289B207201370FEF7E1FB01210C20FEF7DDFB4548D9
:205C2000FDF7E2FA044628B917E02046FDF756FB044690B12946201DFEF730FC0028F4D083
:205C4000606BFDF741FB07282CDD3946304601230622BDE8F041FEF795BD3748FDF754FBF1
:205C600004460028F1D02946201DFEF713FC002304F13000606384F82C3084F82D302363FF
:205C8000FDF7AEFA21462B48FDF7B0FAD8E701210223BCE701221A70FDF78CFB244AC1B23E
:205CA0001170AFE72548FDF72FFB054630B32448FDF72AFBA860E8B1FDF7D6FF6860A8B104
:205CC0000620D5F80880FEF78FFBC0B220B388F8080088E8C0002946606BFDF787FA606B53
:205CE000FDF782FA85421BD0BDE8F081A9681448FDF728FB29461148FDF724FB606BFDF74E
:205D0000E3FA0028A1D121460A48FDF7BFFA21460948FDF717FB98E7082388F80830D8E7C7
:205D20002046BDE8F041FFF70FBE00BFF1250020F2250020E4180020B8020020C40200205C
:205D4000AC02002008B50548FDF7CCFA0448FDF7C9FA0448BDE80840FDF7C4BAC40200201D
:205D6000AC020020B802002070B4064E064D074C07490848002333802B802370102270BC4B
:205D800006F067BFEC270020DA250020F4250020D4190020C41900200C490B881A18B2F591
:205DA000A06F0DD810B40A4C2288C2420AD480B2024418440880228001205DF8044B7047CF
:205DC0000020704700205DF8044B7047EC270020DA250020B0F5A06F98BF034A03469ABF25
:205DE0001380012000207047EC2700200B0A4171037170470379407900EB032080B27047C7
:205E0000BBB18379137028238B4219DC1278062A184417D0112A1BD03A2A1FD09A1C8A4292
:205E20000ED84278D200083213449942B8BF00207047037813704378DB0008338B42E5DDD8
:205E400000207047142213449942B8BF00207047082213449942B8BF00207047042213448E
:205E60009942B8BF0020704770B5012305461446FFF7C6FFB0B12378062B12D0112B10D025
:205E80000E460CE0411B711A89B200232246FFF7B7FF38B12378062B03D0112B01D03A2B6F
:205EA000F0D170BD002070BD70B582B0012314460DF107020546FFF7A3FF9DF80730D0B19B
:205EC0009C421BD0062B16D0112B14D00E4610E0411B711A002389B20DF10702FFF790FFAD
:205EE0009DF8073038B1A34208D0062B03D0112B01D03A2BECD19C4218BF002002B070BD49
:205F000007289ABF024B33F810000020704700BFC4190020072803469DBF034A012022F882
:205F200013100020704700BFC419002010B5064C10222046002106F075FE00224FF6FF7399
:205F40002281238010BD00BFD41900202DE9F047DFF85C8008F108030FCB84B08DE80F00CC
:205F600098F8077001F084FA1048FDF73DF9C0B1DFF840A0DFF840906E4604466568394610
:205F8000304645B1BAF80030B9F800202C3B2C329BB24244A8472046FDF7A0F904460028F6
:205FA000ECD1FFF7E1FE04B0BDE8F087E419002000280020EC270020DA250020F8B51A4FB2
:205FC0001A4A3B7E1279FA71FF2B20D007F1080696E80F00164D07F1180485E80F0094E892
:205FE0000F0086E80F0095E80F0084E80F0001F03FFA104B1B882833FC1800228121F95466
:206000006270628001F000FAC0436080F8BD07F1080494E80F0007F1180585E80F002946BA
:20602000204600F03FFCE2E7002800205C260020EC190020DA25002038B504460D480D46F9
:20604000FDF7D2F8034668B11A79A242184604D15A79954208D0FF2A06D0FDF73FF9034680
:206060000028F1D1012038BD9B68002BFAD09847002038BDE819002001460148FDF7B6B821
:20608000E81900202DE9F04F4A4B1B783A2B83B000F08380484C238973B9638963B9A38937
:2060A00053B9E38943B9238A33B9638A23B9A38A13B9E38A002B6BD0237AFF2B68D03F4BB5
:2060C0003F4DDFF814A11B6B019288460746984795E80F00BAF800E03A4EDFF8F4B00EF175
:2060E000300E1FFA8EFEBEF5A06F86E80F0028BF4FF4A06EA5F11801AEF130024FF000097E
:2061000001F13000AAF800E0ABF8009006F0ACFD15E90F003678DFF8C4E084F8019085E859
:206120000F009EF804E0A4F8029060223A23FF2E84F807E02270A37125D02249224800F0D9
:20614000B1FBBBF80050019805F12803E218E75482F8018002F0C0F9BAF800101B4B283972
:20616000585189B2A3F12C00FFF740FEBBF8003028331C440023638001F046F9C043608090
:2061800003B0BDE8F08F042F02D1B8F1020FD4D003B0BDE8F04FFFF7E7BD0D4C0D4B248836
:2061A000E356002BFFF676AF03B0BDE8F04FFFF7DBBD00BFF425002000280020DCD300004D
:2061C00018280020EC190020082800202C280020DA25002028280020EC2700205C26002012
:2061E0002DE9F8439DB21B4B1B4C1B79E37160262B1D8946267099B200263A230746A371E8
:206200002046667066809046FFF7F0FDFFB13946102204F1180006F01CFD04F1180104F123
:20622000080000F03FFB0D4B1B8828331F1903F8049087F801807E8001F0E6F8084B2C358E
:20624000C04378801D80BDE8F84300F049BEBDE8F88300BF5C26002000280020DA250020E7
:20626000EC27002010B5054C05492046FCF7BEFF20460449BDE81040FCF7B8BFE81900203E
:20628000DC020020D002002010B5084B84B00C469B6901466846984721466846102206F05B
:2062A000C9FCB0FA80F0400904B010BDDCD30000014B1868704700BF901B002070B5064608
:2062C0000C480D46FCF790FF044648B115B1A3689E4208D02046FDF701F804460028F5D13E
:2062E0000024204670BD29462046FFF7CDFF0028F0D0F6E7FC19002030B5114B85B0054695
:206300000C465B696846984721462846FFF7D6FF694604462846FFF7D1FF5CB184420CD05E
:206320001023646934B1A04207D0013BF9D1184605B030BD204605B030BD012005B030BDEE
:20634000DCD3000070B515460646FFF7B7FF30B10446406918B115B183689E4200D070BDEB
:206360002946FFF791FF0028F9D063683C2B84BF3C23636070BD00BF2DE9F84317460546BB
:2063800099460E46FFF79AFF394604462846FFF795FF804607B100B35CB30822B118A56042
:2063A000C4F8049004F10C0006F053FC31462846FFF7A2FF20B9C4F814802046BDE8F8831C
:2063C000284631466569C4F81480FFF795FF0028F3D165612046BDE8F883024639464FF0F2
:2063E000FF332846FFF7C8FF80460028D4D10024E3E70848FCF788FF04460028F7D0002399
:20640000436101460448FCF7F1FE044A136801331360C2E7E8020020FC190020901B002040
:2064200008B5054B054800221A60FCF75BFF0448BDE80840FCF7D4BE901B0020E802002086
:20644000FC1900200148FCF7CFBE00BFFC190020FCF744BF2DE9F84306461D48FCF7C4FE9D
:20646000002833D004461A4FDFF86890DFF8688008E05A1C04D0B3428CBF9B1B00236360A2
:206480002C460DB32046FCF729FF63680546002BEFD13846FCF7A8FE30B14369A342EFD000
:2064A000FCF71CFF0028F8D121463846FCF7EEFE21464846FCF746FFD8F80030013BC8F8F0
:2064C00000302C46002DDDD1BDE8F883BDE8F883FC190020E8020020901B00202DE9F041AE
:2064E0000E48FCF781FEB0B10D4DDFF830800D4F04462046FCF7F2FE214606464046FCF777
:20650000C5FE21463846FCF71DFF2B68013B2B603446002EEDD1BDE8F08100BFFC190020FA
:20652000901B0020E80200202DE9F843099F9DF8208001FB02051646A8424FF000023A6034
:206540001AD2044699464FEAD80803E03C603444AC420CD22378002BF8D042464946A01CE9
:2065600006F068FB0028F2D13C60BDE8F8833B6813B10120BDE8F8830220BDE8F88300BF72
:2065800000487047941B002088B32DE9F04383B0184E009104469846914603460F4601964B
:2065A000202203211448FFF7BFFF01281BD13368187035682068E3686168A268C5F802002B
:2065C0003068C5F80E300A9BC5F80610C5F80A2043610B9B877480F8139080F81C80836171
:2065E00003B0BDE8F083002003B0BDE8F0830020704700BFBC1B00207C27002070B50E4A18
:206600000E4C13460646226002F1600504E023682033AB4223600CD21A78002AF7D09A7CF8
:20662000981CD208314606F005FB0028EFD1012070BD002070BD00BF7C270020BC1B002063
:2066400090B110B582B08022084C009203460194202203210648FFF767FF10B9206802B089
:2066600010BD002002B010BD00207047B41B00207426002070B4114A114E1346326002F172
:206680006004002148F2FE0507E09A7C824209D02033A3424FF001010AD21A78002AF7D0C6
:2066A000421CF2D15A88AA42F2D119B1336001E033600023184670BC704700BF742600207A
:2066C000B41B002018B370B582B08023114D0093044603460195122207210F48FFF724FF20
:2066E000012811D12B6818702B6820686668A168E268C3F802002868C3F80660C3F80A10F5
:20670000C3F80E2002B070BD002002B070BD0020704700BFB81B0020F826002000284CD0A7
:206720002DE9F04182B08023254D00930446034690460F460195202203212248FFF7F4FE2C
:20674000012836D12B6818702B682668D4F804E0A168E268C3F802602E68C3F806E0C3F8BB
:206760000A10C3F80E2086F81380CFB93075164800230121FF220227B1744770C17202706A
:20678000027343808380C38003818372637B4373E389C381FFF796FF286802B0BDE8F081DB
:2067A0000023337506F118003946FCF721FA2E68DDE7002002B0BDE8F0810020704700BF9A
:2067C000B41B002074260020A41B002090B110B582B08022084C0092034601941222072137
:2067E0000648FFF7A1FE10B9206802B010BD002002B010BD00207047B81B0020F82600203F
:20680000E0B138B504460E480025FF23022101224170C272037345808580C58005818572E6
:206820000370E37B4373238AC381FFF7CFFF054B186000B105700023237038BD704700BF0D
:20684000A41B0020B81B002038B5134B134C1846236003F1600504E020682030A84220605C
:2068600012D20378002BF7D0037D002BF4D11830FCF7C6F90028EFD02068FFF7C1FF2068B0
:206880002030A8422060ECD300F0ECF90448BDE83840FCF75DB900BF74260020B41B0020D0
:2068A000DC2700202DE9F04F0B8848F2FE094B453FD00B78FF2B3CD03E4CDFF8FCC00023F4
:2068C0002246CCF8004004F160089A4604E020324245CCF8002020D21478002CF7D0947CED
:2068E000012CF4D154884C45F1D04F1E561C002417F801BF16F8015FAB4504F1080E44D128
:206900005FFA8EF4802CF3D1A2459CBFA246134620324245CCF80020DED35BB353F8024F91
